S00C0000554152542E73726563DC
S11300000C942A000C9447000C9447000C9447006D
S11300100C9447000C9447000C9447000C94470040
S11300200C9447000C9447000C9447000C94470030
S11300300C9447000C9447000C9447000C94470020
S11300400C9447000C9447000C9447000C94470010
S11300500C94470011241FBECFE5D8E0DEBFCDBF0E
S113006010E0A0E6B0E0ECE9F3E002C005900D92E8
S1130070AE36B107D9F720E0AEE6B0E001C01D927C
S1130080A137B207E1F70E9449000C94CC010C940B
S11300900000CF93DF931F92CDB7DEB719820E9481
S11300A05F000E947B0189E690E00E942701CE0157
S11300B001960E945F0189810E941601F8CF809108
S11300C06200811123C05998209160003091610031
S11300D0C901A0E0B0E0880F991FAA1FBB1F880FB9
S11300E0991FAA1FBB1F9C01AD01220F331F441F80
S11300F0551F220F331F441F551F60E472E48FE025
S113010090E00E94AA012150310921C0813009F0F8
S113011085C0599A2091600030916100C901A0E026
S1130120B0E0880F991FAA1FBB1F880F991FAA1F31
S1130130BB1F9C01AD01220F331F441F551F60E4F8
S113014072E48FE090E00E94AA012150310980B549
S11301508F7780BD30BD29B980B5806880BD80911E
S11301606600853041F480B58D7F80BD80B58B7F7E
S113017080BD529827C0863041F480B5826080BD2E
S113018080B58B7F80BD52981DC0873041F480B507
S11301908D7F80BD80B5846080BD529813C0883047
S11301A041F480B5826080BD80B5846080BD529882
S11301B009C08930A9F580B5826080BD80B58460AE
S11301C080BD529A80916700811107C080B58F7EEF
S11301D080BD80B58F7D80BD11C0813039F480B57C
S11301E0806180BD80B5806280BD08C08230D1F45A
S11301F080B58F7E80BD80B5806280BD80916800AF
S1130200813029F480B5877F80BD81E008958230F4
S113021059F480B5886080BD81E0089580E0089538
S113022080E0089580E0089580E00895909165004D
S1130230911105C05D9BFECF8CB981E0089591308A
S113024021F48093700081E0089580E00895CF93B5
S1130250DF93EC018091650081110BC088818823B4
S113026031F121960E94160189918111FBCF81E021
S113027023C08130F1F410926F0080916F00FE0171
S1130280E80FF11D80818823B1F080916F00FE0199
S1130290E80FF11D80810E94160180916F00FE011C
S11302A0E80FF11D80818111F0CF81E005C081E06C
S11302B003C080E001C081E0DF91CF910895FC018B
S11302C090916300911106C05F9BFECF8CB1808337
S11302D081E00895913069F480916E00813031F4A9
S11302E08CB1808310926E0081E00895108281E0C9
S11302F0089580E00895539A549A8091640081117E
S113030002C0569806C08130F9F4569A8FB78068B7
S11303108FBF80916300811102C0579806C081305D
S1130320A9F4579A8FB780688FBF809165008111B7
S113033003C0559881E00895813051F4559A8FB7E0
S113034080688FBF81E0089580E0089580E008957B
S113035080E00895A1E21A2EAA1BBB1BFD010DC06B
S1130360AA1FBB1FEE1FFF1FA217B307E407F50761
S113037020F0A21BB30BE40BF50B661F771F881F3D
S1130380991F1A9469F760957095809590959B01D3
S10F0390AC01BD01CF010895F894FFCF2B
S111039CC012000000000800017361696600D1
S9030000FC
