S00C0000554152542E73726563DC
S11300000C942A000C9447000C9447000C9447006D
S11300100C9447000C9447000C9447000C94470040
S11300200C9447000C9447000C9447000C94470030
S11300300C9447000C9447000C9447000C94470020
S11300400C9447000C9447000C9447000C94470010
S11300500C94470011241FBECFE5D8E0DEBFCDBF0E
S113006010E0A0E6B0E0E2E4F2E002C005900D92F8
S1130070AA36B107D9F720E0AAE6B0E001C01D9284
S1130080AB36B207E1F70E9449000C941F010C94AF
S113009000000E944F0081E00E94EC00FCCF8091A0
S11300A06200811116C0599820916000309161005E
S11300B022953295307F3227207F322740E050E06E
S11300C060E472E48FE090E00E94FD002150310969
S11300D018C0813009F078C0599A2091600030919D
S11300E06100220F331F220F331F220F331F40E002
S11300F050E060E472E48FE090E00E94FD00215043
S113010031095F9830BD29B95F9A809166008530C6
S113011041F480B58D7F80BD80B58B7F80BD5298C2
S113012027C0863041F480B5826080BD80B58B7F66
S113013080BD52981DC0873041F480B58D7F80BD4D
S113014080B5846080BD529813C0883041F480B576
S1130150826080BD80B5846080BD529809C08930BA
S1130160A9F580B5826080BD80B5846080BD529A57
S113017080916700811107C080B58F7E80BD80B5F6
S11301808F7D80BD11C0813039F480B5806180BD20
S113019080B5806280BD08C08230D1F480B58F7E86
S11301A080BD80B5806280BD80916800813029F473
S11301B080B5877F80BD81E00895823059F480B591
S11301C0886080BD81E0089580E0089580E008950E
S11301D080E0089580E0089590916500911105C034
S11301E05D9BFECF8CB981E00895913021F480931A
S11301F06A0081E0089580E00895A1E21A2EAA1B06
S1130200BB1BFD010DC0AA1FBB1FEE1FFF1FA217C2
S1130210B307E407F50720F0A21BB30BE40BF50BBF
S1130220661F771F881F991F1A9469F76095709548
S1130230809590959B01AC01BD01CF010895F89480
S1050240FFCFEA
S10D02428025000000000800010000
S9030000FC
