:100000000C942A000C943F000C943F000C943F0089
:100010000C943F000C943F000C943F000C943F0064
:100020000C943F000C943F000C943F000C943F0054
:100030000C943F000C943F000C943F000C943F0044
:100040000C943F000C943F000C943F000C943F0034
:100050000C943F0011241FBECFE5D8E0DEBFCDBF1A
:1000600010E0A0E6B0E0E0E7F2E002C005900D92FB
:10007000AA36B107D9F70E9441000C9436010C94BE
:100080000000CF93DF93CDB7DEB729970FB6F89472
:10009000DEBF0FBECDBF89E0E0E6F0E0DE011196E5
:1000A00001900D928A95E1F7CE0101960E945900C8
:1000B000FFCFCF93DF93EC018A81811114C059984F
:1000C0002881398122953295307F3227207F32274F
:1000D00040E050E060E472E48FE090E00E941401A0
:1000E0002150310916C0813009F08EC0599A2881FB
:1000F0003981220F331F220F331F220F331F40E09D
:1001000050E060E472E48FE090E00E94140121501E
:1001100031095F9830BD29B98C81811102C0569890
:1001200004C0813009F072C0569A8B81811102C0DF
:10013000579804C0813009F06BC0579A8D818111A6
:1001400002C0559804C0813009F064C0559A5F9A86
:100150008E81853041F480B58D7F80BD80B58B7FE9
:1001600080BD529827C0863041F480B5826080BD42
:1001700080B58B7F80BD52981DC0873041F480B51B
:100180008D7F80BD80B5846080BD529813C088305B
:1001900041F480B5826080BD80B5846080BD529896
:1001A00009C08930C9F580B5826080BD80B58460A2
:1001B00080BD529A8F81811107C080B58F7E80BD2E
:1001C00080B58F7D80BD11C0813039F480B58061EC
:1001D00080BD80B5806280BD08C08230F9F480B5F2
:1001E0008F7E80BD80B5806280BD8885813029F496
:1001F00080B5877F80BD81E014C0823089F480B5EE
:10020000886080BD81E00DC080E00BC080E009C047
:1002100080E007C080E005C080E003C080E001C04E
:1002200080E0DF91CF910895A1E21A2EAA1BBB1B9B
:10023000FD010DC0AA1FBB1FEE1FFF1FA217B307B2
:10024000E407F50720F0A21BB30BE40BF50B661FC8
:10025000771F881F991F1A9469F76095709580958C
:1002600090959B01AC01BD01CF010895F894FFCF9B
:0A02700080250000000008000100D6
:00000001FF
