:100000000C942A000C9447000C9447000C94470071
:100010000C9447000C9447000C9447000C94470044
:100020000C9447000C9447000C9447000C94470034
:100030000C9447000C9447000C9447000C94470024
:100040000C9447000C9447000C9447000C94470014
:100050000C94470011241FBECFE5D8E0DEBFCDBF12
:1000600010E0A0E6B0E0E6EFF4E002C005900D92EB
:10007000AA36B107D9F720E0AAE6B0E001C01D9288
:10008000AB36B207E1F70E941D010C9479020C9483
:100090000000883060F449B321E030E0B90102C0CB
:1000A000660F771F8A95E2F7CB0184232FC098EF64
:1000B000980F983058F436B3292F81E090E002C0B1
:1000C000880F991F2A95E2F7832320C090EF980F9D
:1000D000983058F433B3292F81E090E002C0880FA4
:1000E000991F2A95E2F7832311C098EE980F983054
:1000F00098F440B398EE980F21E030E0B90102C0C7
:10010000660F771F9A95E2F7CB01842391E0811166
:1001100001C090E0892F089580E00895883000F5AF
:1001200061110EC04AB321E030E0B90102C0660F90
:10013000771F8A95E2F7CB01809584238ABB0895C7
:10014000613009F079C04AB321E030E0B90102C062
:10015000660F771F8A95E2F7CB01842B8ABB08953F
:1001600098EF980F983008F561110EC047B321E061
:1001700030E0B90102C0660F771F9A95E2F7CB0114
:100180008095842387BB0895613009F055C047B33B
:10019000885021E030E0B90102C0660F771F8A95D0
:1001A000E2F7CB01842B87BB089590EF980F98302E
:1001B00000F561110EC044B321E030E0B90102C086
:1001C000660F771F9A95E2F7CB018095842384BB55
:1001D0000895613089F544B3805121E030E0B901E0
:1001E00002C0660F771F8A95E2F7CB01842B84BB90
:1001F000089598EE980F9830F8F461110EC041B34D
:1002000021E030E0B90102C0660F771F9A95E2F74E
:10021000CB018095842381BB0895613069F441B39B
:10022000885121E030E0B90102C0660F771F8A953E
:10023000E2F7CB01842B81BB08950E94590160E055
:1002400084E10E948E000E942102C0E0D0E084E19F
:100250000E9449008130A1F484E10E94490081306C
:10026000D9F383ED90E30197F1F700C00000DF5F61
:1002700087EA91E60197F1F700C00000C1E0E7CFFF
:1002800087EA91E60197F1F700C00000CF5FCA301E
:10029000F0F280E38D0F0E9410020E9450029FE353
:1002A0002DE083E0915020408040E1F700C0000045
:1002B000CACF80916200811123C0599820916000BB
:1002C00030916100C901A0E0B0E0880F991FAA1F1A
:1002D000BB1F880F991FAA1FBB1F9C01AD01220FD6
:1002E000331F441F551F220F331F441F551F60E447
:1002F00072E48FE090E00E9457022150310921C042
:10030000813009F085C0599A2091600030916100D8
:10031000C901A0E0B0E0880F991FAA1FBB1F880F7A
:10032000991FAA1FBB1F9C01AD01220F331F441F41
:10033000551F60E472E48FE090E00E945702215064
:10034000310980B58F7780BD30BD29B980B580680F
:1003500080BD80916600853041F480B58D7F80BD81
:1003600080B58B7F80BD529827C0863041F480B520
:10037000826080BD80B58B7F80BD52981DC0873064
:1003800041F480B58D7F80BD80B5846080BD52987A
:1003900013C0883041F480B5826080BD80B5846030
:1003A00080BD529809C08930A9F580B5826080BDB2
:1003B00080B5846080BD529A80916700811107C02A
:1003C00080B58F7E80BD80B58F7D80BD11C08130AE
:1003D00039F480B5806180BD80B5806280BD08C081
:1003E0008230D1F480B58F7E80BD80B5806280BDC3
:1003F00080916800813029F480B5877F80BD81E0DD
:100400000895823059F480B5886080BD81E00895F8
:1004100080E0089580E0089580E0089580E00895E8
:1004200090916500911105C05D9BFECF8CB981E074
:100430000895913021F480936A0081E0089580E06E
:100440000895539A549A80916400811102C056987D
:1004500006C08130F9F4569A8FB780688FBF8091BB
:100460006300811102C0579806C08130A9F4579AE1
:100470008FB780688FBF80916500811103C0559848
:1004800081E00895813051F4559A8FB780688FBF0D
:1004900081E0089580E0089580E0089580E0089567
:1004A0005398549855985798569881E00895A1E22A
:1004B0001A2EAA1BBB1BFD010DC0AA1FBB1FEE1FDE
:1004C000FF1FA217B307E407F50720F0A21BB30B29
:1004D000E40BF50B661F771F881F991F1A9469F7A5
:1004E00060957095809590959B01AC01BD01CF0101
:0604F0000895F894FFCF0F
:0A04F600C012000000000800010021
:00000001FF
