S00C0000554152542E73726563DC
S11300000C942A000C9447000C9447000C9447006D
S11300100C9447000C9447000C9447000C94470040
S11300200C9447000C9447000C9447000C94470030
S11300300C9447000C9437010C941D010C94F400AB
S11300400C9447000C9447000C9447000C94470010
S11300500C94470011241FBECFE5D8E0DEBFCDBF0E
S113006010E0A0E6B0E0ECEEF4E002C005900D92E2
S1130070AE36B107D9F720E0AEE6B0E001C01D927C
S1130080A137B207E1F70E94D8000C9474020C94D3
S11300900000883000F561110EC04AB321E030E061
S11300A0B90102C0660F771F8A95E2F7CB018095EC
S11300B084238ABB0895613009F079C04AB321E0F2
S11300C030E0B90102C0660F771F8A95E2F7CB01D1
S11300D0842B8ABB089598EF980F983008F5611126
S11300E00EC047B321E030E0B90102C0660F771FAC
S11300F09A95E2F7CB018095842387BB08956130FC
S113010009F055C047B3885021E030E0B90102C07E
S1130110660F771F8A95E2F7CB01842B87BB08957E
S113012090EF980F983000F561110EC044B321E0B0
S113013030E0B90102C0660F771F9A95E2F7CB0150
S11301408095842384BB0895613089F544B380513C
S113015021E030E0B90102C0660F771F8A95E2F70B
S1130160CB01842B84BB089598EE980F9830F8F453
S113017061110EC041B321E030E0B90102C0660F45
S1130180771F9A95E2F7CB018095842381BB08956C
S1130190613069F441B3885121E030E0B90102C013
S11301A0660F771F8A95E2F7CB01842B81BB0895F4
S11301B08FEF8ABB0E9460010E942A0280916E0028
S11301C090ED980F907F8F70892B8BBBF5CF61E0FA
S11301D08CE00E94490098B380E1892788BB8EE6B1
S11301E090E00E94170208951F920F920FB60F928B
S11301F011242F933F934F935F936F937F938F9328
S11302009F93AF93BF93EF93FF93E0916900F091B5
S11302106A00309709F00995FF91EF91BF91AF9172
S11302209F918F917F916F915F914F913F912F910A
S11302300F900FBE0F901F9018951F920F920FB63C
S11302400F9211248F9380917000882351F0809134
S113025070008CB980916F008F5F80936F00109253
S113026070008F910F900FBE0F901F9018951F92E2
S11302700F920FB60F9211242F933F934F935F93D6
S11302806F937F938F939F93AF93BF93EF93FF935A
S1130290E0916B00F0916C00309709F00995FF91A3
S11302A0EF91BF91AF919F918F917F916F915F91EA
S11302B04F913F912F910F900FBE0F901F90189563
S11302C080916200811123C059982091600030917F
S11302D06100C901A0E0B0E0880F991FAA1FBB1FED
S11302E0880F991FAA1FBB1F9C01AD01220F331F4A
S11302F0441F551F220F331F441F551F60E472E42F
S11303008FE090E00E9452022150310921C08130D7
S113031009F085C0599A2091600030916100C901AB
S1130320A0E0B0E0880F991FAA1FBB1F880F991F78
S1130330AA1FBB1F9C01AD01220F331F441F551F71
S113034060E472E48FE090E00E945202215031098F
S113035080B58F7780BD30BD29B980B5806880BDF8
S113036080916600853041F480B58D7F80BD80B575
S11303708B7F80BD529827C0863041F480B582605F
S113038080BD80B58B7F80BD52981DC0873041F4FD
S113039080B58D7F80BD80B5846080BD529813C0C8
S11303A0883041F480B5826080BD80B5846080BDB2
S11303B0529809C08930A9F580B5826080BD80B5A6
S11303C0846080BD529A80916700811107C080B516
S11303D08F7E80BD80B58F7D80BD11C0813039F4A2
S11303E080B5806180BD80B5806280BD08C08230E8
S11303F0D1F480B58F7E80BD80B5806280BD809150
S11304006800813029F480B5877F80BD81E008953C
S1130410823059F480B5886080BD81E0089580E021
S1130420089580E0089580E0089580E00895FC0137
S113043090916300911106C05F9BFECF8CB18083C5
S113044081E00895913021F48CB1808381E0089596
S113045080E00895539A549A80916400811102C0F7
S1130460569804C08130C1F4569A78948091630000
S1130470811102C0579804C0813081F4579A78944E
S113048080916500811103C0559881E00895813001
S113049039F4559A7894089580E0089580E0089599
S11304A080E00895A1E21A2EAA1BBB1BFD010DC01A
S11304B0AA1FBB1FEE1FFF1FA217B307E407F50710
S11304C020F0A21BB30BE40BF50B661F771F881FEC
S11304D0991F1A9469F760957095809590959B0182
S10F04E0AC01BD01CF010895F894FFCFDA
S11104ECC012000100000800010000E700003B
S9030000FC
