S00C0000554152542E73726563DC
S11300000C942A000C9447000C9447000C9447006D
S11300100C9447000C9447000C9447000C94470040
S11300200C9447000C9447000C9447000C94470030
S11300300C9447000C9447000C9447000C94470020
S11300400C9447000C9447000C9447000C94470010
S11300500C94470011241FBECFE5D8E0DEBFCDBF0E
S113006010E0A0E6B0E0E0E5F6E002C005900D92F5
S1130070AA36B107D9F720E0AAE6B0E001C01D9284
S1130080AA36B207E1F70E94AC010C9426030C9443
S11300900000883000F561110EC04BB321E030E060
S11300A0B90102C0660F771F8A95E2F7CB018095EC
S11300B084238BBB0895613009F079C04BB321E0F0
S11300C030E0B90102C0660F771F8A95E2F7CB01D1
S11300D0842B8BBB089598EF980F983008F5611125
S11300E00EC048B321E030E0B90102C0660F771FAB
S11300F09A95E2F7CB018095842388BB08956130FB
S113010009F055C048B3885021E030E0B90102C07D
S1130110660F771F8A95E2F7CB01842B88BB08957D
S113012090EF980F983000F561110EC045B321E0AF
S113013030E0B90102C0660F771F9A95E2F7CB0150
S11301408095842385BB0895613089F545B380513A
S113015021E030E0B90102C0660F771F8A95E2F70B
S1130160CB01842B85BB089598EE980F9830F8F452
S113017061110EC042B321E030E0B90102C0660F44
S1130180771F9A95E2F7CB018095842382BB08956B
S1130190613069F442B3885121E030E0B90102C012
S11301A0660F771F8A95E2F7CB01842B82BB0895F3
S11301B0883060F449B321E030E0B90102C0660F31
S11301C0771F8A95E2F7CB0184232FC098EF980F0D
S11301D0983058F436B3292F81E090E002C0880F9C
S11301E0991F2A95E2F7832320C090EF980F983047
S11301F058F433B3292F81E090E002C0880F991F8F
S11302002A95E2F7832311C098EE980F983098F45A
S113021040B398EE980F21E030E0B90102C0660FB8
S1130220771F9A95E2F7CB01842391E0811101C0F5
S113023090E0892F089580E00895883000F56111D9
S11302400EC04AB321E030E0B90102C0660F771F47
S11302508A95E2F7CB01809584238ABB08956130A7
S113026009F079C04AB321E030E0B90102C0660F59
S1130270771F8A95E2F7CB01842B8ABB089598EF08
S1130280980F983008F561110EC047B321E030E0B3
S1130290B90102C0660F771F9A95E2F7CB018095EA
S11302A0842387BB0895613009F055C047B3885053
S11302B021E030E0B90102C0660F771F8A95E2F7AA
S11302C0CB01842B87BB089590EF980F983000F5ED
S11302D061110EC044B321E030E0B90102C0660FE1
S11302E0771F9A95E2F7CB018095842384BB089508
S11302F0613089F544B3805121E030E0B90102C096
S1130300660F771F8A95E2F7CB01842B84BB08958F
S113031098EE980F9830F8F461110EC041B321E0C3
S113032030E0B90102C0660F771F9A95E2F7CB015E
S11303308095842381BB0895613069F441B3885169
S113034021E030E0B90102C0660F771F8A95E2F719
S1130350CB01842B81BB08950E941E020E94D5020A
S113036061E088E00E941D0161E089E00E941D01B6
S113037061E08AE00E941D0161E08BE00E941D01A2
S113038000E011E0F12E1CC0612F8CE10E944900B5
S11303908FE493EC0197F1F700C0000060E08CE17A
S11303A00E9449009FEF28EF85E191502040804052
S11303B0E1F700C0000084E10E94D800882321F303
S11303C088B3807F88BBC0E0D0E084E10E94D8007D
S11303D08130A9F484E10E94D8008130D9F383EDFF
S11303E090E30197F1F700C00000DF5F87EA91E630
S11303F00197F1F700C00000C1E00F2DE6CF87EAB6
S113040091E60197F1F700C00000CF5FCA30E8F22F
S113041088B3DF70807FD82BD8BB85E10E94D800D9
S1130420813029F484E10E94D8008823B1F388B391
S1130430807F8A6088BB013019F6BDCF809162004D
S1130440811123C059982091600030916100C90145
S1130450A0E0B0E0880F991FAA1FBB1F880F991F47
S1130460AA1FBB1F9C01AD01220F331F441F551F40
S1130470220F331F441F551F60E472E48FE090E0A5
S11304800E9404032150310921C0813009F085C044
S1130490599A2091600030916100C901A0E0B0E058
S11304A0880F991FAA1FBB1F880F991FAA1FBB1F64
S11304B09C01AD01220F331F441F551F60E472E4F9
S11304C08FE090E00E9404032150310980B58F77BA
S11304D080BD30BD29B980B5806880BD809166003B
S11304E0853041F480B58D7F80BD80B58B7F80BD24
S11304F0529827C0863041F480B5826080BD80B5B3
S11305008B7F80BD52981DC0873041F480B58D7FAC
S113051080BD80B5846080BD529813C0883041F49A
S113052080B5826080BD80B5846080BD529809C06A
S11305308930A9F580B5826080BD80B5846080BDB6
S1130540529A80916700811107C080B58F7E80BD6B
S113055080B58F7D80BD11C0813039F480B5806154
S113056080BD80B5806280BD08C08230D1F480B582
S11305708F7E80BD80B5806280BD809168008130AF
S113058029F480B5877F80BD81E00895823059F4D5
S113059080B5886080BD81E0089580E0089580E0A2
S11305A0089580E0089580E00895539A549A8091C4
S11305B06400811102C0569806C08130F9F4569A3D
S11305C08FB780688FBF80916300811102C05798F4
S11305D006C08130A9F4579A8FB780688FBF809185
S11305E06500811103C0559881E00895813051F46C
S11305F0559A8FB780688FBF81E0089580E0089591
S113060080E0089580E00895A1E21A2EAA1BBB1B86
S1130610FD010DC0AA1FBB1FEE1FFF1FA217B307CA
S1130620E407F50720F0A21BB30BE40BF50B661FE0
S1130630771F881F991F1A9469F7609570958095A4
S113064090959B01AC01BD01CF010895F894FFCFB3
S10D0650C0120000000008000100C1
S9030000FC
